{
  "contractName": "StorageWithHistory",
  "abi": [
    {
      "inputs": [],
      "stateMutability": "nonpayable",
      "type": "constructor"
    },
    {
      "anonymous": false,
      "inputs": [
        {
          "indexed": false,
          "internalType": "address",
          "name": "addressSetter",
          "type": "address"
        },
        {
          "indexed": false,
          "internalType": "uint256",
          "name": "newValue",
          "type": "uint256"
        }
      ],
      "name": "EventSetValue",
      "type": "event"
    },
    {
      "inputs": [
        {
          "internalType": "uint256",
          "name": "value",
          "type": "uint256"
        }
      ],
      "name": "setValue",
      "outputs": [],
      "stateMutability": "nonpayable",
      "type": "function"
    },
    {
      "inputs": [],
      "name": "getValue",
      "outputs": [
        {
          "internalType": "uint256",
          "name": "",
          "type": "uint256"
        }
      ],
      "stateMutability": "view",
      "type": "function",
      "constant": true
    },
    {
      "inputs": [],
      "name": "getHistoryLenght",
      "outputs": [
        {
          "internalType": "uint256",
          "name": "",
          "type": "uint256"
        }
      ],
      "stateMutability": "view",
      "type": "function",
      "constant": true
    },
    {
      "inputs": [
        {
          "internalType": "uint256",
          "name": "entry",
          "type": "uint256"
        }
      ],
      "name": "getHistoryEntry",
      "outputs": [
        {
          "internalType": "address",
          "name": "",
          "type": "address"
        },
        {
          "internalType": "uint256",
          "name": "",
          "type": "uint256"
        }
      ],
      "stateMutability": "view",
      "type": "function",
      "constant": true
    }
  ],
  "bytecode": "0x608060405234801561001057600080fd5b5060008081905550600060018190555061038f8061002f6000396000f3fe608060405234801561001057600080fd5b5060043610610069576000357c010000000000000000000000000000000000000000000000000000000090048063209652551461006e578063552410771461008c5780637c3ffe2b146100ba578063e83dffa2146100d8575b600080fd5b61007661014d565b6040518082815260200191505060405180910390f35b6100b8600480360360208110156100a257600080fd5b8101908080359060200190929190505050610156565b005b6100c2610271565b6040518082815260200191505060405180910390f35b610104600480360360208110156100ee57600080fd5b810190808035906020019092919050505061027b565b604051808373ffffffffffffffffffffffffffffffffffffffff1673ffffffffffffffffffffffffffffffffffffffff1681526020018281526020019250505060405180910390f35b60008054905090565b8060008190555060405180604001604052803373ffffffffffffffffffffffffffffffffffffffff1681526020018281525060026000600154815260200190815260200160002060008201518160000160006101000a81548173ffffffffffffffffffffffffffffffffffffffff021916908373ffffffffffffffffffffffffffffffffffffffff160217905550602082015181600101559050506001600081548092919060010191905055507fc095985805f6554c66a946781965f3ff2e905e5657ed2124508d19da676573f73382604051808373ffffffffffffffffffffffffffffffffffffffff1673ffffffffffffffffffffffffffffffffffffffff1681526020018281526020019250505060405180910390a150565b6000600154905090565b60008060008310158015610290575060015483105b610302576040517f08c379a00000000000000000000000000000000000000000000000000000000081526004018080602001828103825260178152602001807f486973746f727920656e747279206e6f7420657869737400000000000000000081525060200191505060405180910390fd5b6002600084815260200190815260200160002060000160009054906101000a900473ffffffffffffffffffffffffffffffffffffffff1660026000858152602001908152602001600020600101549150915091509156fea2646970667358221220d911c1e174d32f8a967d2da7868f9a5ac9e1356da1ed46fbaaabfdee124bc80264736f6c634300060b0033",
  "immutableReferences": {},
  "source": "// SPDX-License-Identifier: MIT\npragma solidity ^0.6.0;\n\n// @title Poc pour dev do a storage with history for fun \n// @author me\n// @dev it's just a game\ncontract StorageWithHistory{\n\n    // value to set\n    uint private _value;\n\n    // increment history\n    uint private _historyLenght;\n\n    /// A change entry, save msg.sender and new value.\n    struct ChangeEntry {\n        address addressSetter;\n        uint newValue;\n    }\n\n    // Change history\n    mapping(uint=>ChangeEntry) private _changeHistory;\n\n    ///  when an address set value\n    event EventSetValue(address addressSetter,uint newValue);\n\n    /// constructor just set the value to 0\n    constructor() public{\n        _value=0;\n        _historyLenght=0;\n    }\n\n    ///  To set value\n    function setValue(uint value) public{\n        _value=value;\n        _changeHistory[_historyLenght]=ChangeEntry(msg.sender, value);\n        _historyLenght++;\n        emit EventSetValue(msg.sender, value);\n    }\n    \n    /// Get value \n    function getValue() public view returns(uint){\n        return _value;\n    }\n\n    /// Get history entries lenght\n    function getHistoryLenght() public view returns(uint){\n        return _historyLenght;\n    }\n\n    /// Get history entry \n    /// @param entry : entry point form 0 to  _historyLenght\n    function getHistoryEntry(uint entry) public view returns(address,uint){\n        require(entry>=0 && entry<_historyLenght,\"History entry not exist\");\n        return (_changeHistory[entry].addressSetter,_changeHistory[entry].newValue);\n    }\n}",
  "sourcePath": "/data/workspace_solidity/poc_storage_with_history/contracts/StorageWithHistory.sol",
  "compiler": {
    "name": "solc",
    "version": "0.6.11+commit.5ef660b1.Linux.g++"
  },
  "schemaVersion": "3.3.2",
  "updatedAt": "2021-11-26T12:17:21.049Z",
  "networkType": "ethereum",
  "devdoc": {
    "kind": "dev",
    "methods": {
      "getHistoryEntry(uint256)": {
        "params": {
          "entry": ": entry point form 0 to  _historyLenght"
        }
      }
    },
    "version": 1
  },
  "userdoc": {
    "events": {
      "EventSetValue(address,uint256)": {
        "notice": "when an address set value"
      }
    },
    "kind": "user",
    "methods": {
      "constructor": "constructor just set the value to 0",
      "getHistoryEntry(uint256)": {
        "notice": "Get history entry "
      },
      "getHistoryLenght()": {
        "notice": "Get history entries lenght"
      },
      "getValue()": {
        "notice": "Get value "
      },
      "setValue(uint256)": {
        "notice": "To set value"
      }
    },
    "version": 1
  }
}